:020000040800F2
:100000006806002035020008F7020008F302000825
:10001000F5020008EF0200080104000800000000DB
:10002000000000000000000000000000FB020008CB
:10003000F102000800000000F9020008FD020008BB
:100040004F0200084F0200084F0200084F0200084C
:100050004F0200084F0200084F0200084F0200083C
:100060004F0200084F0200084F0200084F0200082C
:100070004F0200084F0200084F0200084F0200081C
:100080004F0200084F0200084F0200080000000065
:100090000000000000000000000000004F02000807
:1000A0004F0200084F0200084F0200084F020008EC
:1000B0004F0200084F0200084F0200084F020008DC
:1000C0004F0200084F0200084F0200084F020008CC
:1000D0004F0200084F0200084F0200080000000015
:1000E0004F0200084F0200084F0200080000000005
:1000F0000000000000000000000000004F020008A7
:10010000000000004F0200084F0200084F020008E4
:1001100000000000000000000000000000000000DF
:100120004F0200084F0200084F0200084F0200086B
:100130004F02000800000000000000000000000066
:100140000000000000000000000000004F02000856
:100150004F0200084F0200084F0200084F0200083B
:100160004F0200084F0200080000000000000000DD
:10017000000000000000000000000000000000007F
:10018000000000004F020008000000000000000016
:100190004F02000800F002F800F03CF80AA090E8D6
:1001A000000C82448344AAF10107DA4501D100F032
:1001B00031F8AFF2090EBAE80F0013F0010F18BFC3
:1001C000FB1A43F001031847CC060000EC060000C0
:1001D000103A24BF78C878C1FAD8520724BF30C873
:1001E00030C144BF04680C60704700000023002445
:1001F00000250026103A28BF78C1FBD8520728BF37
:1002000030C148BF0B6070471FB500F03EFB1FBDFB
:1002100010B510BD00F031F81146FFF7F5FF00F002
:10022000F3F800F04FF803B4FFF7F2FF03BC00F05F
:1002300057F800000948804709480047FEE7FEE7F5
:10024000FEE7FEE7FEE7FEE7FEE7FEE7FEE7FEE786
:1002500004480549054A064B7047000001030008A1
:100260009501000868000020680600206802002050
:1002700068020020704770477047754600F02CF800
:10028000AE4605006946534620F00700854618B083
:1002900020B5FFF7DDFFBDE820404FF000064FF02E
:1002A00000074FF000084FF0000B21F00701AC46AB
:1002B000ACE8C009ACE8C009ACE8C009ACE8C009CA
:1002C0008D46704710B50446AFF300802046BDE868
:1002D0001040FFF7A8BF000000487047080000204A
:1002E00001491820ABBEFEE7260002007047FEE77A
:1002F0007047FEE7FEE770477047704770470000A1
:10030000364882B0016841F47001016034480168E8
:1003100041F001010160334900230B60026822F4BF
:10032000102222F08072026000F1040C2E4ACCF8F8
:100330000020026822F4802202600A1D13600193EB
:100340000093026842F480320260026802F40032D4
:100350000092019A521C0192009A1AB9019AB2F5C0
:10036000A04FF2D1026812F4003F08BF00932FD0D3
:10037000012200921D4A136843F0805313601C4A07
:10038000136843F4404313600A680A600A680A600D
:100390000A6842F480520A60164ACCF800200268CB
:1003A00042F080720260026812F0007FFBD0124AB5
:1003B00040F202701060086820F0030008600868CE
:1003C00040F002000860086800F00C000828FAD12C
:1003D0000A494FF00060086002B0704788ED00E005
:1003E00000380240083802401030002440380240F3
:1003F0000070004010544107003C024008ED00E04E
:10040000FEE70000000000002DED028B4FF0E0241D
:100410009FED3B8B3C4E6FF07F45206940F0040020
:1004200020616561A561206940F00100206100BF85
:1004300000BF00BF00BF00BF00BF00BF00BF00BFC4
:1004400000BF00BF00BF00BF00BF00BF00BF00BFB4
:1004500000BF00BF00BF00BF00BF00BF00BF00BFA4
:1004600000BF00BF00BF00BF00BF00BF00BF00BF94
:1004700000BF00BF00BF00BF00BF00BF00BF00BF84
:1004800000BF00BF00BF00BF00BF00BF00BF00BF74
:1004900000BF00BF00BF00BF00BF00BF00BF00BF64
:1004A00000BF00BF00BF00BF00BF00BF00BF00BF54
:1004B00000BF00BF00BF00BF00BF00BF00BF00BF44
:1004C00000BF00BF00BF00BF00BF00BF00BF00BF34
:1004D00000BF00BF00BF00BFA069216921F001017A
:1004E0002161281A00F06AF953EC182B00F00EF87D
:1004F00041EC100B86ED000B8FE7000000000000C0
:100500000000000000005540000000202DE9C0411F
:1005100030B4DFF8A0C23CEA111418BF3CEA13144F
:1005200000F0EC8081EA03051CEA111444EAD5745A
:1005300018BF1CEA131500F0C780A4EB05044FF0A8
:10054000004545EAC12145EAC32341EA505143EA47
:10055000525304F17F74994204F500344FEAC020ED
:100560004FEAC22208BF904200F09C804FEA136518
:100570000FF24016765D4FEA134506FB05F7C7F10B
:10058000807706FB07F74FEAD737A7FB0368764269
:10059000C8F58038A7FB06CE38BFA8F1010807FBD5
:1005A00008E64FF0000EA6FB028CE6FB03CEDCF162
:1005B000000CCEF1004E38BFAEF1010EA6FB0C5878
:1005C0004FF000074FF00005E6FB0E87A1FB08C6C1
:1005D000A0FB07CE16EB0E0645F10005E1FB076513
:1005E00015F1E04E7EBFA4F580345FEA46066D410A
:1005F00016F1800745F100054FEA17274FEA066616
:1006000047EA0567A6F1DE46B6F1805F4FEA152599
:100610001FD9384624F0010C05EBC471BCF1FE6F04
:1006200001EB0C1102D8F0BCBDE8008124425CBF94
:1006300001F5801E9EEAC47F02D4F0BCBDE80081B3
:10064000244238D4F0BCA1F1C041BDE8004100F023
:1006500016B94FEAD22242EA43524FEAD323A7FB0C
:1006600002864FEAD02040EA415007FB03661EEAAB
:100670000E0F4FEAD12105FB026658BFA6EB0056CC
:10068000B6EB00564FEA520E4EEAC37E18EB0E0E42
:1006900056EB530EBDD518EB02085E417F1C55F199
:1006A0000005B6E74FF480154FF000074FF0000645
:1006B0004FF00008ADE7F0BC4FF0000001F1C04181
:1006C00001F00041BDE8008111EA0C1F0CEA13158E
:1006D00000D00CE013EA0C1F00F025804FF0000062
:1006E000F0BC81EA030101F00041BDE80081F0BCEB
:1006F000BDE8004181EA030100F0C1B8F0BCBDE8EB
:10070000004170B500F06DF8097EFC3E00F007B8BE
:1007100081EA03014FF0000001F00041704781EAD7
:10072000030100F0ACB8F0BCBDE800414FF00000A0
:1007300021497047FFFDFBF9F7F5F4F2F0EEEDEB20
:10074000E9E8E6E4E3E1E0DEDDDBDAD8D7D5D4D3CF
:10075000D1D0CFCDCCCBCAC8C7C6C5C4C2C1C0BF1B
:10076000BEBDBCBBBAB9B8B7B6B5B4B3B2B1B0AF21
:10077000AEADACABAAA9A8A8A7A6A5A4A3A3A2A105
:10078000A09F9F9E9D9C9C9B9A99999897979695C0
:1007900095949393929191908F8F8E8E8D8C8C8B5C
:1007A0008B8A8989888887878685858484838382E4
:1007B000828181800000FF070000F87FB0FA80F39B
:1007C00010FA03F10AD0C3F11D0303F580634FEA69
:1007D00041504FEA035202EBD12170474FF0000025
:1007E00070470EF1020E2EF0030E5EF8046B3642D7
:1007F00005D4012A43EB030515F5001F12D8012883
:1008000041EB010C1CF5001F0CD80ED14FEAD17C36
:1008100015F5001F0CEB4C0C0CF1020C08BF4CEB57
:10082000D37C04E04FF0080C01E04FEAD37C0CEBE2
:100830004C0526FA05F606F00706B6F1040C06D2BA
:100840000EEB860CBDE870404CF0010C6047DFE811
:100850000CF0090B02024FF000414FF00000A1F52F
:10086000002170BD19461046012851EB010418BF44
:10087000D4F5001484BF002001F0004170BD0808C9
:10088000A0F500114FEA310170474FF04070E1EEE2
:10089000100A7047B408000800000020080000009B
:1008A000D0010008BC080008080000206006000015
:0C08B000EC010008000000000000000047
:040000050800019559
:00000001FF
